{
  "_format": "hh-sol-artifact-1",
  "contractName": "BatchTransfer",
  "sourceName": "contracts/BatchTransfer.sol",
  "abi": [
    {
      "anonymous": false,
      "inputs": [
        {
          "indexed": true,
          "internalType": "address",
          "name": "_from",
          "type": "address"
        },
        {
          "indexed": true,
          "internalType": "contract IERC721",
          "name": "_collection",
          "type": "address"
        },
        {
          "indexed": true,
          "internalType": "address",
          "name": "_to",
          "type": "address"
        }
      ],
      "name": "TransferSuccessfull",
      "type": "event"
    },
    {
      "inputs": [
        {
          "internalType": "address",
          "name": "_from",
          "type": "address"
        },
        {
          "internalType": "contract IERC721",
          "name": "_collection",
          "type": "address"
        },
        {
          "internalType": "address",
          "name": "_to",
          "type": "address"
        },
        {
          "internalType": "uint256[]",
          "name": "_tokenIds",
          "type": "uint256[]"
        }
      ],
      "name": "bulkTransfer",
      "outputs": [],
      "stateMutability": "nonpayable",
      "type": "function"
    }
  ],
  "bytecode": "0x608060405234801561001057600080fd5b5061053a806100206000396000f3fe608060405234801561001057600080fd5b506004361061002b5760003560e01c806330e1eb0214610030575b600080fd5b61004a60048036038101906100459190610267565b61004c565b005b60005b815181101561011a578373ffffffffffffffffffffffffffffffffffffffff166342842e0e86858585815181106100af577f4e487b7100000000000000000000000000000000000000000000000000000000600052603260045260246000fd5b60200260200101516040518463ffffffff1660e01b81526004016100d593929190610300565b600060405180830381600087803b1580156100ef57600080fd5b505af1158015610103573d6000803e3d6000fd5b50505050808061011290610407565b91505061004f565b508173ffffffffffffffffffffffffffffffffffffffff168373ffffffffffffffffffffffffffffffffffffffff168573ffffffffffffffffffffffffffffffffffffffff167f21f98df3352b7a894c036465ea7de56bda517cc3f1c4bfde1d56d6abb6be9bf960405160405180910390a450505050565b60006101a56101a08461035c565b610337565b905080838252602082019050828560208602820111156101c457600080fd5b60005b858110156101f457816101da8882610252565b8452602084019350602083019250506001810190506101c7565b5050509392505050565b60008135905061020d816104bf565b92915050565b600082601f83011261022457600080fd5b8135610234848260208601610192565b91505092915050565b60008135905061024c816104d6565b92915050565b600081359050610261816104ed565b92915050565b6000806000806080858703121561027d57600080fd5b600061028b878288016101fe565b945050602061029c8782880161023d565b93505060406102ad878288016101fe565b925050606085013567ffffffffffffffff8111156102ca57600080fd5b6102d687828801610213565b91505092959194509250565b6102eb81610388565b82525050565b6102fa816103cc565b82525050565b600060608201905061031560008301866102e2565b61032260208301856102e2565b61032f60408301846102f1565b949350505050565b6000610341610352565b905061034d82826103d6565b919050565b6000604051905090565b600067ffffffffffffffff8211156103775761037661047f565b5b602082029050602081019050919050565b6000610393826103ac565b9050919050565b60006103a582610388565b9050919050565b600073ffffffffffffffffffffffffffffffffffffffff82169050919050565b6000819050919050565b6103df826104ae565b810181811067ffffffffffffffff821117156103fe576103fd61047f565b5b80604052505050565b6000610412826103cc565b91507fffffffffffffffffffffffffffffffffffffffffffffffffffffffffffffffff82141561044557610444610450565b5b600182019050919050565b7f4e487b7100000000000000000000000000000000000000000000000000000000600052601160045260246000fd5b7f4e487b7100000000000000000000000000000000000000000000000000000000600052604160045260246000fd5b6000601f19601f8301169050919050565b6104c881610388565b81146104d357600080fd5b50565b6104df8161039a565b81146104ea57600080fd5b50565b6104f6816103cc565b811461050157600080fd5b5056fea2646970667358221220310f7040a68b8c02e64f7b42c05ddf2b0ac335ff3e906c4f2952d52325ebc7cd64736f6c63430008040033",
  "linkReferences": {},
  "deployedLinkReferences": {}
}