{
  "_format": "hh-sol-artifact-1",
  "contractName": "BatchTransfer",
  "sourceName": "contracts/BatchTransfer.sol",
  "abi": [
    {
      "anonymous": false,
      "inputs": [
        {
          "indexed": true,
          "internalType": "address",
          "name": "previousOwner",
          "type": "address"
        },
        {
          "indexed": true,
          "internalType": "address",
          "name": "newOwner",
          "type": "address"
        }
      ],
      "name": "OwnershipTransferred",
      "type": "event"
    },
    {
      "anonymous": false,
      "inputs": [
        {
          "indexed": true,
          "internalType": "uint256",
          "name": "notTransferredCount",
          "type": "uint256"
        },
        {
          "indexed": true,
          "internalType": "uint256[]",
          "name": "notOwnerId",
          "type": "uint256[]"
        },
        {
          "indexed": true,
          "internalType": "address",
          "name": "_to",
          "type": "address"
        }
      ],
      "name": "TransferSuccessfull",
      "type": "event"
    },
    {
      "inputs": [
        {
          "internalType": "address",
          "name": "_from",
          "type": "address"
        },
        {
          "internalType": "contract IERC721",
          "name": "_collection",
          "type": "address"
        },
        {
          "internalType": "address",
          "name": "_to",
          "type": "address"
        },
        {
          "internalType": "uint256[]",
          "name": "_tokenIds",
          "type": "uint256[]"
        },
        {
          "internalType": "uint256",
          "name": "_totalId",
          "type": "uint256"
        }
      ],
      "name": "bulkTransfer",
      "outputs": [],
      "stateMutability": "nonpayable",
      "type": "function"
    },
    {
      "inputs": [],
      "name": "getallCollection",
      "outputs": [
        {
          "internalType": "contract IERC721[]",
          "name": "",
          "type": "address[]"
        }
      ],
      "stateMutability": "view",
      "type": "function"
    },
    {
      "inputs": [],
      "name": "owner",
      "outputs": [
        {
          "internalType": "address",
          "name": "",
          "type": "address"
        }
      ],
      "stateMutability": "view",
      "type": "function"
    },
    {
      "inputs": [],
      "name": "renounceOwnership",
      "outputs": [],
      "stateMutability": "nonpayable",
      "type": "function"
    },
    {
      "inputs": [
        {
          "internalType": "address",
          "name": "newOwner",
          "type": "address"
        }
      ],
      "name": "transferOwnership",
      "outputs": [],
      "stateMutability": "nonpayable",
      "type": "function"
    },
    {
      "inputs": [
        {
          "internalType": "contract IERC721",
          "name": "_collection",
          "type": "address"
        },
        {
          "internalType": "address",
          "name": "_to",
          "type": "address"
        },
        {
          "internalType": "uint256[]",
          "name": "_tokenIds",
          "type": "uint256[]"
        }
      ],
      "name": "withdraw",
      "outputs": [],
      "stateMutability": "nonpayable",
      "type": "function"
    }
  ],
  "bytecode": "0x608060405234801561001057600080fd5b5061002d61002261003260201b60201c565b61003a60201b60201c565b6100fe565b600033905090565b60008060009054906101000a900473ffffffffffffffffffffffffffffffffffffffff169050816000806101000a81548173ffffffffffffffffffffffffffffffffffffffff021916908373ffffffffffffffffffffffffffffffffffffffff1602179055508173ffffffffffffffffffffffffffffffffffffffff168173ffffffffffffffffffffffffffffffffffffffff167f8be0079c531659141344cd1fd0a4f28419497f9722a3daafe3b4186f6b6457e060405160405180910390a35050565b61110a8061010d6000396000f3fe608060405234801561001057600080fd5b50600436106100625760003560e01c806303f73a1f146100675780631086bfe414610083578063715018a6146100a1578063893bd7c8146100ab5780638da5cb5b146100c7578063f2fde38b146100e5575b600080fd5b610081600480360381019061007c9190610a12565b610101565b005b61008b61055b565b6040516100989190610d02565b60405180910390f35b6100a96105e9565b005b6100c560048036038101906100c09190610aa1565b6105fd565b005b6100cf6106df565b6040516100dc9190610cb0565b60405180910390f35b6100ff60048036038101906100fa91906109c0565b610708565b005b600073ffffffffffffffffffffffffffffffffffffffff168373ffffffffffffffffffffffffffffffffffffffff16141561013b57600080fd5b600073ffffffffffffffffffffffffffffffffffffffff168573ffffffffffffffffffffffffffffffffffffffff16141561017557600080fd5b6000825190508181146101bd576040517f08c379a00000000000000000000000000000000000000000000000000000000081526004016101b490610d44565b60405180910390fd5b60008267ffffffffffffffff8111156101ff577f4e487b7100000000000000000000000000000000000000000000000000000000600052604160045260246000fd5b60405190808252806020026020018201604052801561022d5781602001602082028036833780820191505090505b5090506000805b83811015610493578873ffffffffffffffffffffffffffffffffffffffff168873ffffffffffffffffffffffffffffffffffffffff16636352211e8884815181106102a8577f4e487b7100000000000000000000000000000000000000000000000000000000600052603260045260246000fd5b60200260200101516040518263ffffffff1660e01b81526004016102cc9190610d84565b60206040518083038186803b1580156102e457600080fd5b505afa1580156102f8573d6000803e3d6000fd5b505050506040513d601f19601f8201168201806040525081019061031c91906109e9565b73ffffffffffffffffffffffffffffffffffffffff16146103d057858181518110610370577f4e487b7100000000000000000000000000000000000000000000000000000000600052603260045260246000fd5b60200260200101518383815181106103b1577f4e487b7100000000000000000000000000000000000000000000000000000000600052603260045260246000fd5b60200260200101818152505081806103c890610f10565b925050610480565b8773ffffffffffffffffffffffffffffffffffffffff166342842e0e8a89898581518110610427577f4e487b7100000000000000000000000000000000000000000000000000000000600052603260045260246000fd5b60200260200101516040518463ffffffff1660e01b815260040161044d93929190610ccb565b600060405180830381600087803b15801561046757600080fd5b505af115801561047b573d6000803e3d6000fd5b505050505b808061048b90610f10565b915050610234565b506001879080600181540180825580915050600190039060005260206000200160009091909190916101000a81548173ffffffffffffffffffffffffffffffffffffffff021916908373ffffffffffffffffffffffffffffffffffffffff1602179055508573ffffffffffffffffffffffffffffffffffffffff168260405161051c9190610c99565b6040518091039020827f875c643c8810f710d9e76964da5adcb6830ea1b1033c9b8b23b305ce57684d9560405160405180910390a45050505050505050565b606060018054806020026020016040519081016040528092919081815260200182805480156105df57602002820191906000526020600020905b8160009054906101000a900473ffffffffffffffffffffffffffffffffffffffff1673ffffffffffffffffffffffffffffffffffffffff1681526020019060010190808311610595575b5050505050905090565b6105f161078c565b6105fb600061080a565b565b61060561078c565b60008151905060005b818110156106d8578473ffffffffffffffffffffffffffffffffffffffff166342842e0e308686858151811061066d577f4e487b7100000000000000000000000000000000000000000000000000000000600052603260045260246000fd5b60200260200101516040518463ffffffff1660e01b815260040161069393929190610ccb565b600060405180830381600087803b1580156106ad57600080fd5b505af11580156106c1573d6000803e3d6000fd5b5050505080806106d090610f10565b91505061060e565b5050505050565b60008060009054906101000a900473ffffffffffffffffffffffffffffffffffffffff16905090565b61071061078c565b600073ffffffffffffffffffffffffffffffffffffffff168173ffffffffffffffffffffffffffffffffffffffff161415610780576040517f08c379a000000000000000000000000000000000000000000000000000000000815260040161077790610d24565b60405180910390fd5b6107898161080a565b50565b6107946108ce565b73ffffffffffffffffffffffffffffffffffffffff166107b26106df565b73ffffffffffffffffffffffffffffffffffffffff1614610808576040517f08c379a00000000000000000000000000000000000000000000000000000000081526004016107ff90610d64565b60405180910390fd5b565b60008060009054906101000a900473ffffffffffffffffffffffffffffffffffffffff169050816000806101000a81548173ffffffffffffffffffffffffffffffffffffffff021916908373ffffffffffffffffffffffffffffffffffffffff1602179055508173ffffffffffffffffffffffffffffffffffffffff168173ffffffffffffffffffffffffffffffffffffffff167f8be0079c531659141344cd1fd0a4f28419497f9722a3daafe3b4186f6b6457e060405160405180910390a35050565b600033905090565b60006108e96108e484610dc4565b610d9f565b9050808382526020820190508285602086028201111561090857600080fd5b60005b85811015610938578161091e88826109ab565b84526020840193506020830192505060018101905061090b565b5050509392505050565b6000813590506109518161108f565b92915050565b6000815190506109668161108f565b92915050565b600082601f83011261097d57600080fd5b813561098d8482602086016108d6565b91505092915050565b6000813590506109a5816110a6565b92915050565b6000813590506109ba816110bd565b92915050565b6000602082840312156109d257600080fd5b60006109e084828501610942565b91505092915050565b6000602082840312156109fb57600080fd5b6000610a0984828501610957565b91505092915050565b600080600080600060a08688031215610a2a57600080fd5b6000610a3888828901610942565b9550506020610a4988828901610996565b9450506040610a5a88828901610942565b935050606086013567ffffffffffffffff811115610a7757600080fd5b610a838882890161096c565b9250506080610a94888289016109ab565b9150509295509295909350565b600080600060608486031215610ab657600080fd5b6000610ac486828701610996565b9350506020610ad586828701610942565b925050604084013567ffffffffffffffff811115610af257600080fd5b610afe8682870161096c565b9150509250925092565b6000610b148383610c03565b60208301905092915050565b6000610b2c8383610c8a565b60208301905092915050565b610b4181610e6d565b82525050565b6000610b5282610e10565b610b5c8185610e40565b9350610b6783610df0565b8060005b83811015610b98578151610b7f8882610b08565b9750610b8a83610e26565b925050600181019050610b6b565b5085935050505092915050565b6000610bb082610e1b565b610bba8185610e51565b9350610bc583610e00565b8060005b83811015610bf6578151610bdd8882610b20565b9750610be883610e33565b925050600181019050610bc9565b5085935050505092915050565b610c0c81610ebb565b82525050565b6000610c1f602683610e5c565b9150610c2a82610fc8565b604082019050919050565b6000610c42602483610e5c565b9150610c4d82611017565b604082019050919050565b6000610c65602083610e5c565b9150610c7082611066565b602082019050919050565b610c8481610eb1565b82525050565b610c9381610eb1565b82525050565b6000610ca58284610ba5565b915081905092915050565b6000602082019050610cc56000830184610b38565b92915050565b6000606082019050610ce06000830186610b38565b610ced6020830185610b38565b610cfa6040830184610c7b565b949350505050565b60006020820190508181036000830152610d1c8184610b47565b905092915050565b60006020820190508181036000830152610d3d81610c12565b9050919050565b60006020820190508181036000830152610d5d81610c35565b9050919050565b60006020820190508181036000830152610d7d81610c58565b9050919050565b6000602082019050610d996000830184610c7b565b92915050565b6000610da9610dba565b9050610db58282610edf565b919050565b6000604051905090565b600067ffffffffffffffff821115610ddf57610dde610f88565b5b602082029050602081019050919050565b6000819050602082019050919050565b6000819050602082019050919050565b600081519050919050565b600081519050919050565b6000602082019050919050565b6000602082019050919050565b600082825260208201905092915050565b600081905092915050565b600082825260208201905092915050565b6000610e7882610e91565b9050919050565b6000610e8a82610e6d565b9050919050565b600073ffffffffffffffffffffffffffffffffffffffff82169050919050565b6000819050919050565b6000610ec682610ecd565b9050919050565b6000610ed882610e91565b9050919050565b610ee882610fb7565b810181811067ffffffffffffffff82111715610f0757610f06610f88565b5b80604052505050565b6000610f1b82610eb1565b91507fffffffffffffffffffffffffffffffffffffffffffffffffffffffffffffffff821415610f4e57610f4d610f59565b5b600182019050919050565b7f4e487b7100000000000000000000000000000000000000000000000000000000600052601160045260246000fd5b7f4e487b7100000000000000000000000000000000000000000000000000000000600052604160045260246000fd5b6000601f19601f8301169050919050565b7f4f776e61626c653a206e6577206f776e657220697320746865207a65726f206160008201527f6464726573730000000000000000000000000000000000000000000000000000602082015250565b7f746f74616c206964206c6573732f67726561746572207468616e205f69644c6560008201527f6e67687400000000000000000000000000000000000000000000000000000000602082015250565b7f4f776e61626c653a2063616c6c6572206973206e6f7420746865206f776e6572600082015250565b61109881610e6d565b81146110a357600080fd5b50565b6110af81610e7f565b81146110ba57600080fd5b50565b6110c681610eb1565b81146110d157600080fd5b5056fea2646970667358221220797625c60d21938594415496dab5c1b8ab5fd7d08d9c6ee4b34d86f022f937f564736f6c63430008040033",
  "linkReferences": {},
  "deployedLinkReferences": {}
}