{
  "_format": "hh-sol-artifact-1",
  "contractName": "BatchTransfer",
  "sourceName": "contracts/BatchTransfer.sol",
  "abi": [
    {
      "anonymous": false,
      "inputs": [
        {
          "indexed": true,
          "internalType": "address",
          "name": "previousOwner",
          "type": "address"
        },
        {
          "indexed": true,
          "internalType": "address",
          "name": "newOwner",
          "type": "address"
        }
      ],
      "name": "OwnershipTransferred",
      "type": "event"
    },
    {
      "anonymous": false,
      "inputs": [
        {
          "indexed": true,
          "internalType": "address",
          "name": "_from",
          "type": "address"
        },
        {
          "indexed": true,
          "internalType": "contract IERC721",
          "name": "_collection",
          "type": "address"
        },
        {
          "indexed": true,
          "internalType": "address",
          "name": "_to",
          "type": "address"
        }
      ],
      "name": "TransferSuccessfull",
      "type": "event"
    },
    {
      "inputs": [
        {
          "internalType": "address",
          "name": "_from",
          "type": "address"
        },
        {
          "internalType": "contract IERC721",
          "name": "_collection",
          "type": "address"
        },
        {
          "internalType": "address",
          "name": "_to",
          "type": "address"
        },
        {
          "internalType": "uint256[]",
          "name": "_tokenIds",
          "type": "uint256[]"
        },
        {
          "internalType": "uint256",
          "name": "_totalId",
          "type": "uint256"
        }
      ],
      "name": "bulkTransfer",
      "outputs": [
        {
          "internalType": "uint256[]",
          "name": "",
          "type": "uint256[]"
        }
      ],
      "stateMutability": "nonpayable",
      "type": "function"
    },
    {
      "inputs": [],
      "name": "getallCollection",
      "outputs": [
        {
          "internalType": "contract IERC721[]",
          "name": "",
          "type": "address[]"
        }
      ],
      "stateMutability": "view",
      "type": "function"
    },
    {
      "inputs": [],
      "name": "owner",
      "outputs": [
        {
          "internalType": "address",
          "name": "",
          "type": "address"
        }
      ],
      "stateMutability": "view",
      "type": "function"
    },
    {
      "inputs": [],
      "name": "renounceOwnership",
      "outputs": [],
      "stateMutability": "nonpayable",
      "type": "function"
    },
    {
      "inputs": [
        {
          "internalType": "address",
          "name": "newOwner",
          "type": "address"
        }
      ],
      "name": "transferOwnership",
      "outputs": [],
      "stateMutability": "nonpayable",
      "type": "function"
    },
    {
      "inputs": [
        {
          "internalType": "contract IERC721",
          "name": "_collection",
          "type": "address"
        },
        {
          "internalType": "address",
          "name": "_to",
          "type": "address"
        },
        {
          "internalType": "uint256[]",
          "name": "_tokenIds",
          "type": "uint256[]"
        }
      ],
      "name": "withdraw",
      "outputs": [],
      "stateMutability": "nonpayable",
      "type": "function"
    }
  ],
  "bytecode": "0x608060405234801561001057600080fd5b5061002d61002261003260201b60201c565b61003a60201b60201c565b6100fe565b600033905090565b60008060009054906101000a900473ffffffffffffffffffffffffffffffffffffffff169050816000806101000a81548173ffffffffffffffffffffffffffffffffffffffff021916908373ffffffffffffffffffffffffffffffffffffffff1602179055508173ffffffffffffffffffffffffffffffffffffffff168173ffffffffffffffffffffffffffffffffffffffff167f8be0079c531659141344cd1fd0a4f28419497f9722a3daafe3b4186f6b6457e060405160405180910390a35050565b6110fc8061010d6000396000f3fe608060405234801561001057600080fd5b50600436106100625760003560e01c806303f73a1f146100675780631086bfe414610097578063715018a6146100b5578063893bd7c8146100bf5780638da5cb5b146100db578063f2fde38b146100f9575b600080fd5b610081600480360381019061007c91906109f3565b610115565b60405161008e9190610cee565b60405180910390f35b61009f61053c565b6040516100ac9190610ccc565b60405180910390f35b6100bd6105ca565b005b6100d960048036038101906100d49190610a82565b6105de565b005b6100e36106c0565b6040516100f09190610c7a565b60405180910390f35b610113600480360381019061010e91906109a1565b6106e9565b005b6060600073ffffffffffffffffffffffffffffffffffffffff168473ffffffffffffffffffffffffffffffffffffffff16141561015157600080fd5b600073ffffffffffffffffffffffffffffffffffffffff168673ffffffffffffffffffffffffffffffffffffffff16141561018b57600080fd5b6000835190508281146101d3576040517f08c379a00000000000000000000000000000000000000000000000000000000081526004016101ca90610d30565b60405180910390fd5b60005b8181101561040a578773ffffffffffffffffffffffffffffffffffffffff168773ffffffffffffffffffffffffffffffffffffffff16636352211e87848151811061024a577f4e487b7100000000000000000000000000000000000000000000000000000000600052603260045260246000fd5b60200260200101516040518263ffffffff1660e01b815260040161026e9190610d70565b60206040518083038186803b15801561028657600080fd5b505afa15801561029a573d6000803e3d6000fd5b505050506040513d601f19601f820116820180604052508101906102be91906109ca565b73ffffffffffffffffffffffffffffffffffffffff1614610347576001858281518110610314577f4e487b7100000000000000000000000000000000000000000000000000000000600052603260045260246000fd5b602002602001015190806001815401808255809150506001900390600052602060002001600090919091909150556103f7565b8673ffffffffffffffffffffffffffffffffffffffff166342842e0e898888858151811061039e577f4e487b7100000000000000000000000000000000000000000000000000000000600052603260045260246000fd5b60200260200101516040518463ffffffff1660e01b81526004016103c493929190610c95565b600060405180830381600087803b1580156103de57600080fd5b505af11580156103f2573d6000803e3d6000fd5b505050505b808061040290610f02565b9150506101d6565b506002869080600181540180825580915050600190039060005260206000200160009091909190916101000a81548173ffffffffffffffffffffffffffffffffffffffff021916908373ffffffffffffffffffffffffffffffffffffffff1602179055508473ffffffffffffffffffffffffffffffffffffffff168673ffffffffffffffffffffffffffffffffffffffff168873ffffffffffffffffffffffffffffffffffffffff167f21f98df3352b7a894c036465ea7de56bda517cc3f1c4bfde1d56d6abb6be9bf960405160405180910390a4600180548060200260200160405190810160405280929190818152602001828054801561052b57602002820191906000526020600020905b815481526020019060010190808311610517575b505050505091505095945050505050565b606060028054806020026020016040519081016040528092919081815260200182805480156105c057602002820191906000526020600020905b8160009054906101000a900473ffffffffffffffffffffffffffffffffffffffff1673ffffffffffffffffffffffffffffffffffffffff1681526020019060010190808311610576575b5050505050905090565b6105d261076d565b6105dc60006107eb565b565b6105e661076d565b60008151905060005b818110156106b9578473ffffffffffffffffffffffffffffffffffffffff166342842e0e308686858151811061064e577f4e487b7100000000000000000000000000000000000000000000000000000000600052603260045260246000fd5b60200260200101516040518463ffffffff1660e01b815260040161067493929190610c95565b600060405180830381600087803b15801561068e57600080fd5b505af11580156106a2573d6000803e3d6000fd5b5050505080806106b190610f02565b9150506105ef565b5050505050565b60008060009054906101000a900473ffffffffffffffffffffffffffffffffffffffff16905090565b6106f161076d565b600073ffffffffffffffffffffffffffffffffffffffff168173ffffffffffffffffffffffffffffffffffffffff161415610761576040517f08c379a000000000000000000000000000000000000000000000000000000000815260040161075890610d10565b60405180910390fd5b61076a816107eb565b50565b6107756108af565b73ffffffffffffffffffffffffffffffffffffffff166107936106c0565b73ffffffffffffffffffffffffffffffffffffffff16146107e9576040517f08c379a00000000000000000000000000000000000000000000000000000000081526004016107e090610d50565b60405180910390fd5b565b60008060009054906101000a900473ffffffffffffffffffffffffffffffffffffffff169050816000806101000a81548173ffffffffffffffffffffffffffffffffffffffff021916908373ffffffffffffffffffffffffffffffffffffffff1602179055508173ffffffffffffffffffffffffffffffffffffffff168173ffffffffffffffffffffffffffffffffffffffff167f8be0079c531659141344cd1fd0a4f28419497f9722a3daafe3b4186f6b6457e060405160405180910390a35050565b600033905090565b60006108ca6108c584610db0565b610d8b565b905080838252602082019050828560208602820111156108e957600080fd5b60005b8581101561091957816108ff888261098c565b8452602084019350602083019250506001810190506108ec565b5050509392505050565b60008135905061093281611081565b92915050565b60008151905061094781611081565b92915050565b600082601f83011261095e57600080fd5b813561096e8482602086016108b7565b91505092915050565b60008135905061098681611098565b92915050565b60008135905061099b816110af565b92915050565b6000602082840312156109b357600080fd5b60006109c184828501610923565b91505092915050565b6000602082840312156109dc57600080fd5b60006109ea84828501610938565b91505092915050565b600080600080600060a08688031215610a0b57600080fd5b6000610a1988828901610923565b9550506020610a2a88828901610977565b9450506040610a3b88828901610923565b935050606086013567ffffffffffffffff811115610a5857600080fd5b610a648882890161094d565b9250506080610a758882890161098c565b9150509295509295909350565b600080600060608486031215610a9757600080fd5b6000610aa586828701610977565b9350506020610ab686828701610923565b925050604084013567ffffffffffffffff811115610ad357600080fd5b610adf8682870161094d565b9150509250925092565b6000610af58383610be4565b60208301905092915050565b6000610b0d8383610c5c565b60208301905092915050565b610b2281610e5f565b82525050565b6000610b3382610dfc565b610b3d8185610e2c565b9350610b4883610ddc565b8060005b83811015610b79578151610b608882610ae9565b9750610b6b83610e12565b925050600181019050610b4c565b5085935050505092915050565b6000610b9182610e07565b610b9b8185610e3d565b9350610ba683610dec565b8060005b83811015610bd7578151610bbe8882610b01565b9750610bc983610e1f565b925050600181019050610baa565b5085935050505092915050565b610bed81610ead565b82525050565b6000610c00602683610e4e565b9150610c0b82610fba565b604082019050919050565b6000610c23602483610e4e565b9150610c2e82611009565b604082019050919050565b6000610c46602083610e4e565b9150610c5182611058565b602082019050919050565b610c6581610ea3565b82525050565b610c7481610ea3565b82525050565b6000602082019050610c8f6000830184610b19565b92915050565b6000606082019050610caa6000830186610b19565b610cb76020830185610b19565b610cc46040830184610c6b565b949350505050565b60006020820190508181036000830152610ce68184610b28565b905092915050565b60006020820190508181036000830152610d088184610b86565b905092915050565b60006020820190508181036000830152610d2981610bf3565b9050919050565b60006020820190508181036000830152610d4981610c16565b9050919050565b60006020820190508181036000830152610d6981610c39565b9050919050565b6000602082019050610d856000830184610c6b565b92915050565b6000610d95610da6565b9050610da18282610ed1565b919050565b6000604051905090565b600067ffffffffffffffff821115610dcb57610dca610f7a565b5b602082029050602081019050919050565b6000819050602082019050919050565b6000819050602082019050919050565b600081519050919050565b600081519050919050565b6000602082019050919050565b6000602082019050919050565b600082825260208201905092915050565b600082825260208201905092915050565b600082825260208201905092915050565b6000610e6a82610e83565b9050919050565b6000610e7c82610e5f565b9050919050565b600073ffffffffffffffffffffffffffffffffffffffff82169050919050565b6000819050919050565b6000610eb882610ebf565b9050919050565b6000610eca82610e83565b9050919050565b610eda82610fa9565b810181811067ffffffffffffffff82111715610ef957610ef8610f7a565b5b80604052505050565b6000610f0d82610ea3565b91507fffffffffffffffffffffffffffffffffffffffffffffffffffffffffffffffff821415610f4057610f3f610f4b565b5b600182019050919050565b7f4e487b7100000000000000000000000000000000000000000000000000000000600052601160045260246000fd5b7f4e487b7100000000000000000000000000000000000000000000000000000000600052604160045260246000fd5b6000601f19601f8301169050919050565b7f4f776e61626c653a206e6577206f776e657220697320746865207a65726f206160008201527f6464726573730000000000000000000000000000000000000000000000000000602082015250565b7f746f74616c206964206c6573732f67726561746572207468616e205f69644c6560008201527f6e67687400000000000000000000000000000000000000000000000000000000602082015250565b7f4f776e61626c653a2063616c6c6572206973206e6f7420746865206f776e6572600082015250565b61108a81610e5f565b811461109557600080fd5b50565b6110a181610e71565b81146110ac57600080fd5b50565b6110b881610ea3565b81146110c357600080fd5b5056fea2646970667358221220b172934d2d5262ccabb6f727466c06744748826138c609bd0d66b1a8a865765464736f6c63430008040033",
  "linkReferences": {},
  "deployedLinkReferences": {}
}