{
  "_format": "hh-sol-artifact-1",
  "contractName": "BatchTransfer",
  "sourceName": "contracts/BatchTransfer.sol",
  "abi": [
    {
      "anonymous": false,
      "inputs": [
        {
          "indexed": true,
          "internalType": "address",
          "name": "previousOwner",
          "type": "address"
        },
        {
          "indexed": true,
          "internalType": "address",
          "name": "newOwner",
          "type": "address"
        }
      ],
      "name": "OwnershipTransferred",
      "type": "event"
    },
    {
      "anonymous": false,
      "inputs": [
        {
          "indexed": true,
          "internalType": "address",
          "name": "_from",
          "type": "address"
        },
        {
          "indexed": true,
          "internalType": "contract IERC721",
          "name": "_collection",
          "type": "address"
        },
        {
          "indexed": true,
          "internalType": "address",
          "name": "_to",
          "type": "address"
        }
      ],
      "name": "TransferSuccessfull",
      "type": "event"
    },
    {
      "inputs": [
        {
          "internalType": "uint256",
          "name": "",
          "type": "uint256"
        }
      ],
      "name": "allCollection",
      "outputs": [
        {
          "internalType": "contract IERC721",
          "name": "",
          "type": "address"
        }
      ],
      "stateMutability": "view",
      "type": "function"
    },
    {
      "inputs": [
        {
          "internalType": "address",
          "name": "_from",
          "type": "address"
        },
        {
          "internalType": "contract IERC721",
          "name": "_collection",
          "type": "address"
        },
        {
          "internalType": "address",
          "name": "_to",
          "type": "address"
        },
        {
          "internalType": "uint256[]",
          "name": "_tokenIds",
          "type": "uint256[]"
        },
        {
          "internalType": "uint256",
          "name": "_totalId",
          "type": "uint256"
        }
      ],
      "name": "bulkTransfer",
      "outputs": [
        {
          "internalType": "uint256[]",
          "name": "",
          "type": "uint256[]"
        }
      ],
      "stateMutability": "nonpayable",
      "type": "function"
    },
    {
      "inputs": [],
      "name": "owner",
      "outputs": [
        {
          "internalType": "address",
          "name": "",
          "type": "address"
        }
      ],
      "stateMutability": "view",
      "type": "function"
    },
    {
      "inputs": [],
      "name": "renounceOwnership",
      "outputs": [],
      "stateMutability": "nonpayable",
      "type": "function"
    },
    {
      "inputs": [
        {
          "internalType": "address",
          "name": "newOwner",
          "type": "address"
        }
      ],
      "name": "transferOwnership",
      "outputs": [],
      "stateMutability": "nonpayable",
      "type": "function"
    },
    {
      "inputs": [
        {
          "internalType": "contract IERC721",
          "name": "_collection",
          "type": "address"
        },
        {
          "internalType": "address",
          "name": "_to",
          "type": "address"
        },
        {
          "internalType": "uint256[]",
          "name": "_tokenIds",
          "type": "uint256[]"
        }
      ],
      "name": "withdraw",
      "outputs": [],
      "stateMutability": "nonpayable",
      "type": "function"
    }
  ],
  "bytecode": "0x608060405234801561001057600080fd5b5061002d61002261003260201b60201c565b61003a60201b60201c565b6100fe565b600033905090565b60008060009054906101000a900473ffffffffffffffffffffffffffffffffffffffff169050816000806101000a81548173ffffffffffffffffffffffffffffffffffffffff021916908373ffffffffffffffffffffffffffffffffffffffff1602179055508173ffffffffffffffffffffffffffffffffffffffff168173ffffffffffffffffffffffffffffffffffffffff167f8be0079c531659141344cd1fd0a4f28419497f9722a3daafe3b4186f6b6457e060405160405180910390a35050565b6110328061010d6000396000f3fe608060405234801561001057600080fd5b50600436106100625760003560e01c806303f73a1f146100675780632398f0be14610097578063715018a6146100c7578063893bd7c8146100d15780638da5cb5b146100ed578063f2fde38b1461010b575b600080fd5b610081600480360381019061007c91906109b6565b610127565b60405161008e9190610c42565b60405180910390f35b6100b160048036038101906100ac9190610aac565b61054e565b6040516100be9190610c64565b60405180910390f35b6100cf61058d565b005b6100eb60048036038101906100e69190610a45565b6105a1565b005b6100f5610683565b6040516101029190610bf0565b60405180910390f35b61012560048036038101906101209190610964565b6106ac565b005b6060600073ffffffffffffffffffffffffffffffffffffffff168473ffffffffffffffffffffffffffffffffffffffff16141561016357600080fd5b600073ffffffffffffffffffffffffffffffffffffffff168673ffffffffffffffffffffffffffffffffffffffff16141561019d57600080fd5b6000835190508281146101e5576040517f08c379a00000000000000000000000000000000000000000000000000000000081526004016101dc90610c9f565b60405180910390fd5b60005b8181101561041c578773ffffffffffffffffffffffffffffffffffffffff168773ffffffffffffffffffffffffffffffffffffffff16636352211e87848151811061025c577f4e487b7100000000000000000000000000000000000000000000000000000000600052603260045260246000fd5b60200260200101516040518263ffffffff1660e01b81526004016102809190610cdf565b60206040518083038186803b15801561029857600080fd5b505afa1580156102ac573d6000803e3d6000fd5b505050506040513d601f19601f820116820180604052508101906102d0919061098d565b73ffffffffffffffffffffffffffffffffffffffff1614610359576001858281518110610326577f4e487b7100000000000000000000000000000000000000000000000000000000600052603260045260246000fd5b60200260200101519080600181540180825580915050600190039060005260206000200160009091909190915055610409565b8673ffffffffffffffffffffffffffffffffffffffff166342842e0e89888885815181106103b0577f4e487b7100000000000000000000000000000000000000000000000000000000600052603260045260246000fd5b60200260200101516040518463ffffffff1660e01b81526004016103d693929190610c0b565b600060405180830381600087803b1580156103f057600080fd5b505af1158015610404573d6000803e3d6000fd5b505050505b808061041490610e38565b9150506101e8565b506002869080600181540180825580915050600190039060005260206000200160009091909190916101000a81548173ffffffffffffffffffffffffffffffffffffffff021916908373ffffffffffffffffffffffffffffffffffffffff1602179055508473ffffffffffffffffffffffffffffffffffffffff168673ffffffffffffffffffffffffffffffffffffffff168873ffffffffffffffffffffffffffffffffffffffff167f21f98df3352b7a894c036465ea7de56bda517cc3f1c4bfde1d56d6abb6be9bf960405160405180910390a4600180548060200260200160405190810160405280929190818152602001828054801561053d57602002820191906000526020600020905b815481526020019060010190808311610529575b505050505091505095945050505050565b6002818154811061055e57600080fd5b906000526020600020016000915054906101000a900473ffffffffffffffffffffffffffffffffffffffff1681565b610595610730565b61059f60006107ae565b565b6105a9610730565b60008151905060005b8181101561067c578473ffffffffffffffffffffffffffffffffffffffff166342842e0e3086868581518110610611577f4e487b7100000000000000000000000000000000000000000000000000000000600052603260045260246000fd5b60200260200101516040518463ffffffff1660e01b815260040161063793929190610c0b565b600060405180830381600087803b15801561065157600080fd5b505af1158015610665573d6000803e3d6000fd5b50505050808061067490610e38565b9150506105b2565b5050505050565b60008060009054906101000a900473ffffffffffffffffffffffffffffffffffffffff16905090565b6106b4610730565b600073ffffffffffffffffffffffffffffffffffffffff168173ffffffffffffffffffffffffffffffffffffffff161415610724576040517f08c379a000000000000000000000000000000000000000000000000000000000815260040161071b90610c7f565b60405180910390fd5b61072d816107ae565b50565b610738610872565b73ffffffffffffffffffffffffffffffffffffffff16610756610683565b73ffffffffffffffffffffffffffffffffffffffff16146107ac576040517f08c379a00000000000000000000000000000000000000000000000000000000081526004016107a390610cbf565b60405180910390fd5b565b60008060009054906101000a900473ffffffffffffffffffffffffffffffffffffffff169050816000806101000a81548173ffffffffffffffffffffffffffffffffffffffff021916908373ffffffffffffffffffffffffffffffffffffffff1602179055508173ffffffffffffffffffffffffffffffffffffffff168173ffffffffffffffffffffffffffffffffffffffff167f8be0079c531659141344cd1fd0a4f28419497f9722a3daafe3b4186f6b6457e060405160405180910390a35050565b600033905090565b600061088d61088884610d1f565b610cfa565b905080838252602082019050828560208602820111156108ac57600080fd5b60005b858110156108dc57816108c2888261094f565b8452602084019350602083019250506001810190506108af565b5050509392505050565b6000813590506108f581610fb7565b92915050565b60008151905061090a81610fb7565b92915050565b600082601f83011261092157600080fd5b813561093184826020860161087a565b91505092915050565b60008135905061094981610fce565b92915050565b60008135905061095e81610fe5565b92915050565b60006020828403121561097657600080fd5b6000610984848285016108e6565b91505092915050565b60006020828403121561099f57600080fd5b60006109ad848285016108fb565b91505092915050565b600080600080600060a086880312156109ce57600080fd5b60006109dc888289016108e6565b95505060206109ed8882890161093a565b94505060406109fe888289016108e6565b935050606086013567ffffffffffffffff811115610a1b57600080fd5b610a2788828901610910565b9250506080610a388882890161094f565b9150509295509295909350565b600080600060608486031215610a5a57600080fd5b6000610a688682870161093a565b9350506020610a79868287016108e6565b925050604084013567ffffffffffffffff811115610a9657600080fd5b610aa286828701610910565b9150509250925092565b600060208284031215610abe57600080fd5b6000610acc8482850161094f565b91505092915050565b6000610ae18383610bd2565b60208301905092915050565b610af681610d95565b82525050565b6000610b0782610d5b565b610b118185610d73565b9350610b1c83610d4b565b8060005b83811015610b4d578151610b348882610ad5565b9750610b3f83610d66565b925050600181019050610b20565b5085935050505092915050565b610b6381610de3565b82525050565b6000610b76602683610d84565b9150610b8182610ef0565b604082019050919050565b6000610b99602483610d84565b9150610ba482610f3f565b604082019050919050565b6000610bbc602083610d84565b9150610bc782610f8e565b602082019050919050565b610bdb81610dd9565b82525050565b610bea81610dd9565b82525050565b6000602082019050610c056000830184610aed565b92915050565b6000606082019050610c206000830186610aed565b610c2d6020830185610aed565b610c3a6040830184610be1565b949350505050565b60006020820190508181036000830152610c5c8184610afc565b905092915050565b6000602082019050610c796000830184610b5a565b92915050565b60006020820190508181036000830152610c9881610b69565b9050919050565b60006020820190508181036000830152610cb881610b8c565b9050919050565b60006020820190508181036000830152610cd881610baf565b9050919050565b6000602082019050610cf46000830184610be1565b92915050565b6000610d04610d15565b9050610d108282610e07565b919050565b6000604051905090565b600067ffffffffffffffff821115610d3a57610d39610eb0565b5b602082029050602081019050919050565b6000819050602082019050919050565b600081519050919050565b6000602082019050919050565b600082825260208201905092915050565b600082825260208201905092915050565b6000610da082610db9565b9050919050565b6000610db282610d95565b9050919050565b600073ffffffffffffffffffffffffffffffffffffffff82169050919050565b6000819050919050565b6000610dee82610df5565b9050919050565b6000610e0082610db9565b9050919050565b610e1082610edf565b810181811067ffffffffffffffff82111715610e2f57610e2e610eb0565b5b80604052505050565b6000610e4382610dd9565b91507fffffffffffffffffffffffffffffffffffffffffffffffffffffffffffffffff821415610e7657610e75610e81565b5b600182019050919050565b7f4e487b7100000000000000000000000000000000000000000000000000000000600052601160045260246000fd5b7f4e487b7100000000000000000000000000000000000000000000000000000000600052604160045260246000fd5b6000601f19601f8301169050919050565b7f4f776e61626c653a206e6577206f776e657220697320746865207a65726f206160008201527f6464726573730000000000000000000000000000000000000000000000000000602082015250565b7f746f74616c206964206c6573732f67726561746572207468616e205f69644c6560008201527f6e67687400000000000000000000000000000000000000000000000000000000602082015250565b7f4f776e61626c653a2063616c6c6572206973206e6f7420746865206f776e6572600082015250565b610fc081610d95565b8114610fcb57600080fd5b50565b610fd781610da7565b8114610fe257600080fd5b50565b610fee81610dd9565b8114610ff957600080fd5b5056fea264697066735822122028072e1f1368ba8b4c00d967cdab8333a82c2bd1b12f84e9749336255c0c72a764736f6c63430008040033",
  "linkReferences": {},
  "deployedLinkReferences": {}
}